{
	"data": {
		"bytecode": {
			"linkReferences": {},
			"object": "60806040523480156200001157600080fd5b5060405162000e5038038062000e508339818101604052810190620000379190620002ec565b60005b8151811015620000e75760016000815480929190620000599062000477565b919050555060405180604001604052808383815181106200007f576200007e62000523565b5b60200260200101518152602001600081525060008060015481526020019081526020016000206000820151816000019080519060200190620000c3929190620000ef565b50602082015181600101559050508080620000de9062000477565b9150506200003a565b5050620005ab565b828054620000fd906200040b565b90600052602060002090601f0160209004810192826200012157600085556200016d565b82601f106200013c57805160ff19168380011785556200016d565b828001600101855582156200016d579182015b828111156200016c5782518255916020019190600101906200014f565b5b5090506200017c919062000180565b5090565b5b808211156200019b57600081600090555060010162000181565b5090565b6000620001b6620001b08462000366565b6200033d565b90508083825260208201905082856020860282011115620001dc57620001db62000586565b5b60005b858110156200023157815167ffffffffffffffff81111562000206576200020562000581565b5b808601620002158982620002b9565b85526020850194506020840193505050600181019050620001df565b5050509392505050565b6000620002526200024c8462000395565b6200033d565b9050828152602081018484840111156200027157620002706200058b565b5b6200027e848285620003d5565b509392505050565b600082601f8301126200029e576200029d62000581565b5b8151620002b08482602086016200019f565b91505092915050565b600082601f830112620002d157620002d062000581565b5b8151620002e38482602086016200023b565b91505092915050565b60006020828403121562000305576200030462000595565b5b600082015167ffffffffffffffff81111562000326576200032562000590565b5b620003348482850162000286565b91505092915050565b6000620003496200035c565b905062000357828262000441565b919050565b6000604051905090565b600067ffffffffffffffff82111562000384576200038362000552565b5b602082029050602081019050919050565b600067ffffffffffffffff821115620003b357620003b262000552565b5b620003be826200059a565b9050602081019050919050565b6000819050919050565b60005b83811015620003f5578082015181840152602081019050620003d8565b8381111562000405576000848401525b50505050565b600060028204905060018216806200042457607f821691505b602082108114156200043b576200043a620004f4565b5b50919050565b6200044c826200059a565b810181811067ffffffffffffffff821117156200046e576200046d62000552565b5b80604052505050565b60006200048482620003cb565b91507fffffffffffffffffffffffffffffffffffffffffffffffffffffffffffffffff821415620004ba57620004b9620004c5565b5b600182019050919050565b7f4e487b7100000000000000000000000000000000000000000000000000000000600052601160045260246000fd5b7f4e487b7100000000000000000000000000000000000000000000000000000000600052602260045260246000fd5b7f4e487b7100000000000000000000000000000000000000000000000000000000600052603260045260246000fd5b7f4e487b7100000000000000000000000000000000000000000000000000000000600052604160045260246000fd5b600080fd5b600080fd5b600080fd5b600080fd5b600080fd5b6000601f19601f8301169050919050565b61089580620005bb6000396000f3fe608060405234801561001057600080fd5b50600436106100575760003560e01c8063216068311461005c5780638f023f8514610078578063985c64d0146100a9578063bc83abde146100c5578063d086d11c146100e3575b600080fd5b61007660048036038101906100719190610494565b610113565b005b610092600480360381019061008d9190610494565b610192565b6040516100a092919061054f565b60405180910390f35b6100c360048036038101906100be919061044b565b61023e565b005b6100cd6102ad565b6040516100da91906105bf565b60405180910390f35b6100fd60048036038101906100f89190610494565b6102b3565b60405161010a91906105bf565b60405180910390f35b60015481111580156101255750600081115b610164576040517f08c379a000000000000000000000000000000000000000000000000000000000815260040161015b9061059f565b60405180910390fd5b600080828152602001908152602001600020600101600081548092919061018a906106fb565b919050555050565b60006020528060005260406000206000915090508060000180546101b590610698565b80601f01602080910402602001604051908101604052809291908181526020018280546101e190610698565b801561022e5780601f106102035761010080835404028352916020019161022e565b820191906000526020600020905b81548152906001019060200180831161021157829003601f168201915b5050505050908060010154905082565b60016000815480929190610251906106fb565b9190505550604051806040016040528082815260200160008152506000806001548152602001908152602001600020600082015181600001908051906020019061029c929190610323565b506020820151816001015590505050565b60015481565b600060015482111580156102c75750600082115b610306576040517f08c379a00000000000000000000000000000000000000000000000000000000081526004016102fd9061057f565b60405180910390fd5b600080838152602001908152602001600020600101549050919050565b82805461032f90610698565b90600052602060002090601f0160209004810192826103515760008555610398565b82601f1061036a57805160ff1916838001178555610398565b82800160010185558215610398579182015b8281111561039757825182559160200191906001019061037c565b5b5090506103a591906103a9565b5090565b5b808211156103c25760008160009055506001016103aa565b5090565b60006103d96103d4846105ff565b6105da565b9050828152602081018484840111156103f5576103f46107d6565b5b610400848285610656565b509392505050565b600082601f83011261041d5761041c6107d1565b5b813561042d8482602086016103c6565b91505092915050565b60008135905061044581610848565b92915050565b600060208284031215610461576104606107e0565b5b600082013567ffffffffffffffff81111561047f5761047e6107db565b5b61048b84828501610408565b91505092915050565b6000602082840312156104aa576104a96107e0565b5b60006104b884828501610436565b91505092915050565b60006104cc82610630565b6104d6818561063b565b93506104e6818560208601610665565b6104ef816107e5565b840191505092915050565b600061050760138361063b565b9150610512826107f6565b602082019050919050565b600061052a60138361063b565b91506105358261081f565b602082019050919050565b6105498161064c565b82525050565b6000604082019050818103600083015261056981856104c1565b90506105786020830184610540565b9392505050565b60006020820190508181036000830152610598816104fa565b9050919050565b600060208201905081810360008301526105b88161051d565b9050919050565b60006020820190506105d46000830184610540565b92915050565b60006105e46105f5565b90506105f082826106ca565b919050565b6000604051905090565b600067ffffffffffffffff82111561061a576106196107a2565b5b610623826107e5565b9050602081019050919050565b600081519050919050565b600082825260208201905092915050565b6000819050919050565b82818337600083830152505050565b60005b83811015610683578082015181840152602081019050610668565b83811115610692576000848401525b50505050565b600060028204905060018216806106b057607f821691505b602082108114156106c4576106c3610773565b5b50919050565b6106d3826107e5565b810181811067ffffffffffffffff821117156106f2576106f16107a2565b5b80604052505050565b60006107068261064c565b91507fffffffffffffffffffffffffffffffffffffffffffffffffffffffffffffffff82141561073957610738610744565b5b600182019050919050565b7f4e487b7100000000000000000000000000000000000000000000000000000000600052601160045260246000fd5b7f4e487b7100000000000000000000000000000000000000000000000000000000600052602260045260246000fd5b7f4e487b7100000000000000000000000000000000000000000000000000000000600052604160045260246000fd5b600080fd5b600080fd5b600080fd5b600080fd5b6000601f19601f8301169050919050565b7f43616e64696461746f20696e76616c69646f2e00000000000000000000000000600082015250565b7f63616e64696461746f20696e76616c69646f2e00000000000000000000000000600082015250565b6108518161064c565b811461085c57600080fd5b5056fea26469706673582212206309c90673c07ea5d9e9ca679138af0de55f1a117d1623ef26862ab1e5b65e6a64736f6c63430008060033",
			"opcodes": "PUSH1 0x80 PUSH1 0x40 MSTORE CALLVALUE DUP1 ISZERO PUSH3 0x11 JUMPI PUSH1 0x0 DUP1 REVERT JUMPDEST POP PUSH1 0x40 MLOAD PUSH3 0xE50 CODESIZE SUB DUP1 PUSH3 0xE50 DUP4 CODECOPY DUP2 DUP2 ADD PUSH1 0x40 MSTORE DUP2 ADD SWAP1 PUSH3 0x37 SWAP2 SWAP1 PUSH3 0x2EC JUMP JUMPDEST PUSH1 0x0 JUMPDEST DUP2 MLOAD DUP2 LT ISZERO PUSH3 0xE7 JUMPI PUSH1 0x1 PUSH1 0x0 DUP2 SLOAD DUP1 SWAP3 SWAP2 SWAP1 PUSH3 0x59 SWAP1 PUSH3 0x477 JUMP JUMPDEST SWAP2 SWAP1 POP SSTORE POP PUSH1 0x40 MLOAD DUP1 PUSH1 0x40 ADD PUSH1 0x40 MSTORE DUP1 DUP4 DUP4 DUP2 MLOAD DUP2 LT PUSH3 0x7F JUMPI PUSH3 0x7E PUSH3 0x523 JUMP JUMPDEST JUMPDEST PUSH1 0x20 MUL PUSH1 0x20 ADD ADD MLOAD DUP2 MSTORE PUSH1 0x20 ADD PUSH1 0x0 DUP2 MSTORE POP PUSH1 0x0 DUP1 PUSH1 0x1 SLOAD DUP2 MSTORE PUSH1 0x20 ADD SWAP1 DUP2 MSTORE PUSH1 0x20 ADD PUSH1 0x0 KECCAK256 PUSH1 0x0 DUP3 ADD MLOAD DUP2 PUSH1 0x0 ADD SWAP1 DUP1 MLOAD SWAP1 PUSH1 0x20 ADD SWAP1 PUSH3 0xC3 SWAP3 SWAP2 SWAP1 PUSH3 0xEF JUMP JUMPDEST POP PUSH1 0x20 DUP3 ADD MLOAD DUP2 PUSH1 0x1 ADD SSTORE SWAP1 POP POP DUP1 DUP1 PUSH3 0xDE SWAP1 PUSH3 0x477 JUMP JUMPDEST SWAP2 POP POP PUSH3 0x3A JUMP JUMPDEST POP POP PUSH3 0x5AB JUMP JUMPDEST DUP3 DUP1 SLOAD PUSH3 0xFD SWAP1 PUSH3 0x40B JUMP JUMPDEST SWAP1 PUSH1 0x0 MSTORE PUSH1 0x20 PUSH1 0x0 KECCAK256 SWAP1 PUSH1 0x1F ADD PUSH1 0x20 SWAP1 DIV DUP2 ADD SWAP3 DUP3 PUSH3 0x121 JUMPI PUSH1 0x0 DUP6 SSTORE PUSH3 0x16D JUMP JUMPDEST DUP3 PUSH1 0x1F LT PUSH3 0x13C JUMPI DUP1 MLOAD PUSH1 0xFF NOT AND DUP4 DUP1 ADD OR DUP6 SSTORE PUSH3 0x16D JUMP JUMPDEST DUP3 DUP1 ADD PUSH1 0x1 ADD DUP6 SSTORE DUP3 ISZERO PUSH3 0x16D JUMPI SWAP2 DUP3 ADD JUMPDEST DUP3 DUP2 GT ISZERO PUSH3 0x16C JUMPI DUP3 MLOAD DUP3 SSTORE SWAP2 PUSH1 0x20 ADD SWAP2 SWAP1 PUSH1 0x1 ADD SWAP1 PUSH3 0x14F JUMP JUMPDEST JUMPDEST POP SWAP1 POP PUSH3 0x17C SWAP2 SWAP1 PUSH3 0x180 JUMP JUMPDEST POP SWAP1 JUMP JUMPDEST JUMPDEST DUP1 DUP3 GT ISZERO PUSH3 0x19B JUMPI PUSH1 0x0 DUP2 PUSH1 0x0 SWAP1 SSTORE POP PUSH1 0x1 ADD PUSH3 0x181 JUMP JUMPDEST POP SWAP1 JUMP JUMPDEST PUSH1 0x0 PUSH3 0x1B6 PUSH3 0x1B0 DUP5 PUSH3 0x366 JUMP JUMPDEST PUSH3 0x33D JUMP JUMPDEST SWAP1 POP DUP1 DUP4 DUP3 MSTORE PUSH1 0x20 DUP3 ADD SWAP1 POP DUP3 DUP6 PUSH1 0x20 DUP7 MUL DUP3 ADD GT ISZERO PUSH3 0x1DC JUMPI PUSH3 0x1DB PUSH3 0x586 JUMP JUMPDEST JUMPDEST PUSH1 0x0 JUMPDEST DUP6 DUP2 LT ISZERO PUSH3 0x231 JUMPI DUP2 MLOAD PUSH8 0xFFFFFFFFFFFFFFFF DUP2 GT ISZERO PUSH3 0x206 JUMPI PUSH3 0x205 PUSH3 0x581 JUMP JUMPDEST JUMPDEST DUP1 DUP7 ADD PUSH3 0x215 DUP10 DUP3 PUSH3 0x2B9 JUMP JUMPDEST DUP6 MSTORE PUSH1 0x20 DUP6 ADD SWAP5 POP PUSH1 0x20 DUP5 ADD SWAP4 POP POP POP PUSH1 0x1 DUP2 ADD SWAP1 POP PUSH3 0x1DF JUMP JUMPDEST POP POP POP SWAP4 SWAP3 POP POP POP JUMP JUMPDEST PUSH1 0x0 PUSH3 0x252 PUSH3 0x24C DUP5 PUSH3 0x395 JUMP JUMPDEST PUSH3 0x33D JUMP JUMPDEST SWAP1 POP DUP3 DUP2 MSTORE PUSH1 0x20 DUP2 ADD DUP5 DUP5 DUP5 ADD GT ISZERO PUSH3 0x271 JUMPI PUSH3 0x270 PUSH3 0x58B JUMP JUMPDEST JUMPDEST PUSH3 0x27E DUP5 DUP3 DUP6 PUSH3 0x3D5 JUMP JUMPDEST POP SWAP4 SWAP3 POP POP POP JUMP JUMPDEST PUSH1 0x0 DUP3 PUSH1 0x1F DUP4 ADD SLT PUSH3 0x29E JUMPI PUSH3 0x29D PUSH3 0x581 JUMP JUMPDEST JUMPDEST DUP2 MLOAD PUSH3 0x2B0 DUP5 DUP3 PUSH1 0x20 DUP7 ADD PUSH3 0x19F JUMP JUMPDEST SWAP2 POP POP SWAP3 SWAP2 POP POP JUMP JUMPDEST PUSH1 0x0 DUP3 PUSH1 0x1F DUP4 ADD SLT PUSH3 0x2D1 JUMPI PUSH3 0x2D0 PUSH3 0x581 JUMP JUMPDEST JUMPDEST DUP2 MLOAD PUSH3 0x2E3 DUP5 DUP3 PUSH1 0x20 DUP7 ADD PUSH3 0x23B JUMP JUMPDEST SWAP2 POP POP SWAP3 SWAP2 POP POP JUMP JUMPDEST PUSH1 0x0 PUSH1 0x20 DUP3 DUP5 SUB SLT ISZERO PUSH3 0x305 JUMPI PUSH3 0x304 PUSH3 0x595 JUMP JUMPDEST JUMPDEST PUSH1 0x0 DUP3 ADD MLOAD PUSH8 0xFFFFFFFFFFFFFFFF DUP2 GT ISZERO PUSH3 0x326 JUMPI PUSH3 0x325 PUSH3 0x590 JUMP JUMPDEST JUMPDEST PUSH3 0x334 DUP5 DUP3 DUP6 ADD PUSH3 0x286 JUMP JUMPDEST SWAP2 POP POP SWAP3 SWAP2 POP POP JUMP JUMPDEST PUSH1 0x0 PUSH3 0x349 PUSH3 0x35C JUMP JUMPDEST SWAP1 POP PUSH3 0x357 DUP3 DUP3 PUSH3 0x441 JUMP JUMPDEST SWAP2 SWAP1 POP JUMP JUMPDEST PUSH1 0x0 PUSH1 0x40 MLOAD SWAP1 POP SWAP1 JUMP JUMPDEST PUSH1 0x0 PUSH8 0xFFFFFFFFFFFFFFFF DUP3 GT ISZERO PUSH3 0x384 JUMPI PUSH3 0x383 PUSH3 0x552 JUMP JUMPDEST JUMPDEST PUSH1 0x20 DUP3 MUL SWAP1 POP PUSH1 0x20 DUP2 ADD SWAP1 POP SWAP2 SWAP1 POP JUMP JUMPDEST PUSH1 0x0 PUSH8 0xFFFFFFFFFFFFFFFF DUP3 GT ISZERO PUSH3 0x3B3 JUMPI PUSH3 0x3B2 PUSH3 0x552 JUMP JUMPDEST JUMPDEST PUSH3 0x3BE DUP3 PUSH3 0x59A JUMP JUMPDEST SWAP1 POP PUSH1 0x20 DUP2 ADD SWAP1 POP SWAP2 SWAP1 POP JUMP JUMPDEST PUSH1 0x0 DUP2 SWAP1 POP SWAP2 SWAP1 POP JUMP JUMPDEST PUSH1 0x0 JUMPDEST DUP4 DUP2 LT ISZERO PUSH3 0x3F5 JUMPI DUP1 DUP3 ADD MLOAD DUP2 DUP5 ADD MSTORE PUSH1 0x20 DUP2 ADD SWAP1 POP PUSH3 0x3D8 JUMP JUMPDEST DUP4 DUP2 GT ISZERO PUSH3 0x405 JUMPI PUSH1 0x0 DUP5 DUP5 ADD MSTORE JUMPDEST POP POP POP POP JUMP JUMPDEST PUSH1 0x0 PUSH1 0x2 DUP3 DIV SWAP1 POP PUSH1 0x1 DUP3 AND DUP1 PUSH3 0x424 JUMPI PUSH1 0x7F DUP3 AND SWAP2 POP JUMPDEST PUSH1 0x20 DUP3 LT DUP2 EQ ISZERO PUSH3 0x43B JUMPI PUSH3 0x43A PUSH3 0x4F4 JUMP JUMPDEST JUMPDEST POP SWAP2 SWAP1 POP JUMP JUMPDEST PUSH3 0x44C DUP3 PUSH3 0x59A JUMP JUMPDEST DUP2 ADD DUP2 DUP2 LT PUSH8 0xFFFFFFFFFFFFFFFF DUP3 GT OR ISZERO PUSH3 0x46E JUMPI PUSH3 0x46D PUSH3 0x552 JUMP JUMPDEST JUMPDEST DUP1 PUSH1 0x40 MSTORE POP POP POP JUMP JUMPDEST PUSH1 0x0 PUSH3 0x484 DUP3 PUSH3 0x3CB JUMP JUMPDEST SWAP2 POP PUSH32 0xFFFFFFFFFFFFFFFFFFFFFFFFFFFFFFFFFFFFFFFFFFFFFFFFFFFFFFFFFFFFFFFF DUP3 EQ ISZERO PUSH3 0x4BA JUMPI PUSH3 0x4B9 PUSH3 0x4C5 JUMP JUMPDEST JUMPDEST PUSH1 0x1 DUP3 ADD SWAP1 POP SWAP2 SWAP1 POP JUMP JUMPDEST PUSH32 0x4E487B7100000000000000000000000000000000000000000000000000000000 PUSH1 0x0 MSTORE PUSH1 0x11 PUSH1 0x4 MSTORE PUSH1 0x24 PUSH1 0x0 REVERT JUMPDEST PUSH32 0x4E487B7100000000000000000000000000000000000000000000000000000000 PUSH1 0x0 MSTORE PUSH1 0x22 PUSH1 0x4 MSTORE PUSH1 0x24 PUSH1 0x0 REVERT JUMPDEST PUSH32 0x4E487B7100000000000000000000000000000000000000000000000000000000 PUSH1 0x0 MSTORE PUSH1 0x32 PUSH1 0x4 MSTORE PUSH1 0x24 PUSH1 0x0 REVERT JUMPDEST PUSH32 0x4E487B7100000000000000000000000000000000000000000000000000000000 PUSH1 0x0 MSTORE PUSH1 0x41 PUSH1 0x4 MSTORE PUSH1 0x24 PUSH1 0x0 REVERT JUMPDEST PUSH1 0x0 DUP1 REVERT JUMPDEST PUSH1 0x0 DUP1 REVERT JUMPDEST PUSH1 0x0 DUP1 REVERT JUMPDEST PUSH1 0x0 DUP1 REVERT JUMPDEST PUSH1 0x0 DUP1 REVERT JUMPDEST PUSH1 0x0 PUSH1 0x1F NOT PUSH1 0x1F DUP4 ADD AND SWAP1 POP SWAP2 SWAP1 POP JUMP JUMPDEST PUSH2 0x895 DUP1 PUSH3 0x5BB PUSH1 0x0 CODECOPY PUSH1 0x0 RETURN INVALID PUSH1 0x80 PUSH1 0x40 MSTORE CALLVALUE DUP1 ISZERO PUSH2 0x10 JUMPI PUSH1 0x0 DUP1 REVERT JUMPDEST POP PUSH1 0x4 CALLDATASIZE LT PUSH2 0x57 JUMPI PUSH1 0x0 CALLDATALOAD PUSH1 0xE0 SHR DUP1 PUSH4 0x21606831 EQ PUSH2 0x5C JUMPI DUP1 PUSH4 0x8F023F85 EQ PUSH2 0x78 JUMPI DUP1 PUSH4 0x985C64D0 EQ PUSH2 0xA9 JUMPI DUP1 PUSH4 0xBC83ABDE EQ PUSH2 0xC5 JUMPI DUP1 PUSH4 0xD086D11C EQ PUSH2 0xE3 JUMPI JUMPDEST PUSH1 0x0 DUP1 REVERT JUMPDEST PUSH2 0x76 PUSH1 0x4 DUP1 CALLDATASIZE SUB DUP2 ADD SWAP1 PUSH2 0x71 SWAP2 SWAP1 PUSH2 0x494 JUMP JUMPDEST PUSH2 0x113 JUMP JUMPDEST STOP JUMPDEST PUSH2 0x92 PUSH1 0x4 DUP1 CALLDATASIZE SUB DUP2 ADD SWAP1 PUSH2 0x8D SWAP2 SWAP1 PUSH2 0x494 JUMP JUMPDEST PUSH2 0x192 JUMP JUMPDEST PUSH1 0x40 MLOAD PUSH2 0xA0 SWAP3 SWAP2 SWAP1 PUSH2 0x54F JUMP JUMPDEST PUSH1 0x40 MLOAD DUP1 SWAP2 SUB SWAP1 RETURN JUMPDEST PUSH2 0xC3 PUSH1 0x4 DUP1 CALLDATASIZE SUB DUP2 ADD SWAP1 PUSH2 0xBE SWAP2 SWAP1 PUSH2 0x44B JUMP JUMPDEST PUSH2 0x23E JUMP JUMPDEST STOP JUMPDEST PUSH2 0xCD PUSH2 0x2AD JUMP JUMPDEST PUSH1 0x40 MLOAD PUSH2 0xDA SWAP2 SWAP1 PUSH2 0x5BF JUMP JUMPDEST PUSH1 0x40 MLOAD DUP1 SWAP2 SUB SWAP1 RETURN JUMPDEST PUSH2 0xFD PUSH1 0x4 DUP1 CALLDATASIZE SUB DUP2 ADD SWAP1 PUSH2 0xF8 SWAP2 SWAP1 PUSH2 0x494 JUMP JUMPDEST PUSH2 0x2B3 JUMP JUMPDEST PUSH1 0x40 MLOAD PUSH2 0x10A SWAP2 SWAP1 PUSH2 0x5BF JUMP JUMPDEST PUSH1 0x40 MLOAD DUP1 SWAP2 SUB SWAP1 RETURN JUMPDEST PUSH1 0x1 SLOAD DUP2 GT ISZERO DUP1 ISZERO PUSH2 0x125 JUMPI POP PUSH1 0x0 DUP2 GT JUMPDEST PUSH2 0x164 JUMPI PUSH1 0x40 MLOAD PUSH32 0x8C379A000000000000000000000000000000000000000000000000000000000 DUP2 MSTORE PUSH1 0x4 ADD PUSH2 0x15B SWAP1 PUSH2 0x59F JUMP JUMPDEST PUSH1 0x40 MLOAD DUP1 SWAP2 SUB SWAP1 REVERT JUMPDEST PUSH1 0x0 DUP1 DUP3 DUP2 MSTORE PUSH1 0x20 ADD SWAP1 DUP2 MSTORE PUSH1 0x20 ADD PUSH1 0x0 KECCAK256 PUSH1 0x1 ADD PUSH1 0x0 DUP2 SLOAD DUP1 SWAP3 SWAP2 SWAP1 PUSH2 0x18A SWAP1 PUSH2 0x6FB JUMP JUMPDEST SWAP2 SWAP1 POP SSTORE POP POP JUMP JUMPDEST PUSH1 0x0 PUSH1 0x20 MSTORE DUP1 PUSH1 0x0 MSTORE PUSH1 0x40 PUSH1 0x0 KECCAK256 PUSH1 0x0 SWAP2 POP SWAP1 POP DUP1 PUSH1 0x0 ADD DUP1 SLOAD PUSH2 0x1B5 SWAP1 PUSH2 0x698 JUMP JUMPDEST DUP1 PUSH1 0x1F ADD PUSH1 0x20 DUP1 SWAP2 DIV MUL PUSH1 0x20 ADD PUSH1 0x40 MLOAD SWAP1 DUP2 ADD PUSH1 0x40 MSTORE DUP1 SWAP3 SWAP2 SWAP1 DUP2 DUP2 MSTORE PUSH1 0x20 ADD DUP3 DUP1 SLOAD PUSH2 0x1E1 SWAP1 PUSH2 0x698 JUMP JUMPDEST DUP1 ISZERO PUSH2 0x22E JUMPI DUP1 PUSH1 0x1F LT PUSH2 0x203 JUMPI PUSH2 0x100 DUP1 DUP4 SLOAD DIV MUL DUP4 MSTORE SWAP2 PUSH1 0x20 ADD SWAP2 PUSH2 0x22E JUMP JUMPDEST DUP3 ADD SWAP2 SWAP1 PUSH1 0x0 MSTORE PUSH1 0x20 PUSH1 0x0 KECCAK256 SWAP1 JUMPDEST DUP2 SLOAD DUP2 MSTORE SWAP1 PUSH1 0x1 ADD SWAP1 PUSH1 0x20 ADD DUP1 DUP4 GT PUSH2 0x211 JUMPI DUP3 SWAP1 SUB PUSH1 0x1F AND DUP3 ADD SWAP2 JUMPDEST POP POP POP POP POP SWAP1 DUP1 PUSH1 0x1 ADD SLOAD SWAP1 POP DUP3 JUMP JUMPDEST PUSH1 0x1 PUSH1 0x0 DUP2 SLOAD DUP1 SWAP3 SWAP2 SWAP1 PUSH2 0x251 SWAP1 PUSH2 0x6FB JUMP JUMPDEST SWAP2 SWAP1 POP SSTORE POP PUSH1 0x40 MLOAD DUP1 PUSH1 0x40 ADD PUSH1 0x40 MSTORE DUP1 DUP3 DUP2 MSTORE PUSH1 0x20 ADD PUSH1 0x0 DUP2 MSTORE POP PUSH1 0x0 DUP1 PUSH1 0x1 SLOAD DUP2 MSTORE PUSH1 0x20 ADD SWAP1 DUP2 MSTORE PUSH1 0x20 ADD PUSH1 0x0 KECCAK256 PUSH1 0x0 DUP3 ADD MLOAD DUP2 PUSH1 0x0 ADD SWAP1 DUP1 MLOAD SWAP1 PUSH1 0x20 ADD SWAP1 PUSH2 0x29C SWAP3 SWAP2 SWAP1 PUSH2 0x323 JUMP JUMPDEST POP PUSH1 0x20 DUP3 ADD MLOAD DUP2 PUSH1 0x1 ADD SSTORE SWAP1 POP POP POP JUMP JUMPDEST PUSH1 0x1 SLOAD DUP2 JUMP JUMPDEST PUSH1 0x0 PUSH1 0x1 SLOAD DUP3 GT ISZERO DUP1 ISZERO PUSH2 0x2C7 JUMPI POP PUSH1 0x0 DUP3 GT JUMPDEST PUSH2 0x306 JUMPI PUSH1 0x40 MLOAD PUSH32 0x8C379A000000000000000000000000000000000000000000000000000000000 DUP2 MSTORE PUSH1 0x4 ADD PUSH2 0x2FD SWAP1 PUSH2 0x57F JUMP JUMPDEST PUSH1 0x40 MLOAD DUP1 SWAP2 SUB SWAP1 REVERT JUMPDEST PUSH1 0x0 DUP1 DUP4 DUP2 MSTORE PUSH1 0x20 ADD SWAP1 DUP2 MSTORE PUSH1 0x20 ADD PUSH1 0x0 KECCAK256 PUSH1 0x1 ADD SLOAD SWAP1 POP SWAP2 SWAP1 POP JUMP JUMPDEST DUP3 DUP1 SLOAD PUSH2 0x32F SWAP1 PUSH2 0x698 JUMP JUMPDEST SWAP1 PUSH1 0x0 MSTORE PUSH1 0x20 PUSH1 0x0 KECCAK256 SWAP1 PUSH1 0x1F ADD PUSH1 0x20 SWAP1 DIV DUP2 ADD SWAP3 DUP3 PUSH2 0x351 JUMPI PUSH1 0x0 DUP6 SSTORE PUSH2 0x398 JUMP JUMPDEST DUP3 PUSH1 0x1F LT PUSH2 0x36A JUMPI DUP1 MLOAD PUSH1 0xFF NOT AND DUP4 DUP1 ADD OR DUP6 SSTORE PUSH2 0x398 JUMP JUMPDEST DUP3 DUP1 ADD PUSH1 0x1 ADD DUP6 SSTORE DUP3 ISZERO PUSH2 0x398 JUMPI SWAP2 DUP3 ADD JUMPDEST DUP3 DUP2 GT ISZERO PUSH2 0x397 JUMPI DUP3 MLOAD DUP3 SSTORE SWAP2 PUSH1 0x20 ADD SWAP2 SWAP1 PUSH1 0x1 ADD SWAP1 PUSH2 0x37C JUMP JUMPDEST JUMPDEST POP SWAP1 POP PUSH2 0x3A5 SWAP2 SWAP1 PUSH2 0x3A9 JUMP JUMPDEST POP SWAP1 JUMP JUMPDEST JUMPDEST DUP1 DUP3 GT ISZERO PUSH2 0x3C2 JUMPI PUSH1 0x0 DUP2 PUSH1 0x0 SWAP1 SSTORE POP PUSH1 0x1 ADD PUSH2 0x3AA JUMP JUMPDEST POP SWAP1 JUMP JUMPDEST PUSH1 0x0 PUSH2 0x3D9 PUSH2 0x3D4 DUP5 PUSH2 0x5FF JUMP JUMPDEST PUSH2 0x5DA JUMP JUMPDEST SWAP1 POP DUP3 DUP2 MSTORE PUSH1 0x20 DUP2 ADD DUP5 DUP5 DUP5 ADD GT ISZERO PUSH2 0x3F5 JUMPI PUSH2 0x3F4 PUSH2 0x7D6 JUMP JUMPDEST JUMPDEST PUSH2 0x400 DUP5 DUP3 DUP6 PUSH2 0x656 JUMP JUMPDEST POP SWAP4 SWAP3 POP POP POP JUMP JUMPDEST PUSH1 0x0 DUP3 PUSH1 0x1F DUP4 ADD SLT PUSH2 0x41D JUMPI PUSH2 0x41C PUSH2 0x7D1 JUMP JUMPDEST JUMPDEST DUP2 CALLDATALOAD PUSH2 0x42D DUP5 DUP3 PUSH1 0x20 DUP7 ADD PUSH2 0x3C6 JUMP JUMPDEST SWAP2 POP POP SWAP3 SWAP2 POP POP JUMP JUMPDEST PUSH1 0x0 DUP2 CALLDATALOAD SWAP1 POP PUSH2 0x445 DUP2 PUSH2 0x848 JUMP JUMPDEST SWAP3 SWAP2 POP POP JUMP JUMPDEST PUSH1 0x0 PUSH1 0x20 DUP3 DUP5 SUB SLT ISZERO PUSH2 0x461 JUMPI PUSH2 0x460 PUSH2 0x7E0 JUMP JUMPDEST JUMPDEST PUSH1 0x0 DUP3 ADD CALLDATALOAD PUSH8 0xFFFFFFFFFFFFFFFF DUP2 GT ISZERO PUSH2 0x47F JUMPI PUSH2 0x47E PUSH2 0x7DB JUMP JUMPDEST JUMPDEST PUSH2 0x48B DUP5 DUP3 DUP6 ADD PUSH2 0x408 JUMP JUMPDEST SWAP2 POP POP SWAP3 SWAP2 POP POP JUMP JUMPDEST PUSH1 0x0 PUSH1 0x20 DUP3 DUP5 SUB SLT ISZERO PUSH2 0x4AA JUMPI PUSH2 0x4A9 PUSH2 0x7E0 JUMP JUMPDEST JUMPDEST PUSH1 0x0 PUSH2 0x4B8 DUP5 DUP3 DUP6 ADD PUSH2 0x436 JUMP JUMPDEST SWAP2 POP POP SWAP3 SWAP2 POP POP JUMP JUMPDEST PUSH1 0x0 PUSH2 0x4CC DUP3 PUSH2 0x630 JUMP JUMPDEST PUSH2 0x4D6 DUP2 DUP6 PUSH2 0x63B JUMP JUMPDEST SWAP4 POP PUSH2 0x4E6 DUP2 DUP6 PUSH1 0x20 DUP7 ADD PUSH2 0x665 JUMP JUMPDEST PUSH2 0x4EF DUP2 PUSH2 0x7E5 JUMP JUMPDEST DUP5 ADD SWAP2 POP POP SWAP3 SWAP2 POP POP JUMP JUMPDEST PUSH1 0x0 PUSH2 0x507 PUSH1 0x13 DUP4 PUSH2 0x63B JUMP JUMPDEST SWAP2 POP PUSH2 0x512 DUP3 PUSH2 0x7F6 JUMP JUMPDEST PUSH1 0x20 DUP3 ADD SWAP1 POP SWAP2 SWAP1 POP JUMP JUMPDEST PUSH1 0x0 PUSH2 0x52A PUSH1 0x13 DUP4 PUSH2 0x63B JUMP JUMPDEST SWAP2 POP PUSH2 0x535 DUP3 PUSH2 0x81F JUMP JUMPDEST PUSH1 0x20 DUP3 ADD SWAP1 POP SWAP2 SWAP1 POP JUMP JUMPDEST PUSH2 0x549 DUP2 PUSH2 0x64C JUMP JUMPDEST DUP3 MSTORE POP POP JUMP JUMPDEST PUSH1 0x0 PUSH1 0x40 DUP3 ADD SWAP1 POP DUP2 DUP2 SUB PUSH1 0x0 DUP4 ADD MSTORE PUSH2 0x569 DUP2 DUP6 PUSH2 0x4C1 JUMP JUMPDEST SWAP1 POP PUSH2 0x578 PUSH1 0x20 DUP4 ADD DUP5 PUSH2 0x540 JUMP JUMPDEST SWAP4 SWAP3 POP POP POP JUMP JUMPDEST PUSH1 0x0 PUSH1 0x20 DUP3 ADD SWAP1 POP DUP2 DUP2 SUB PUSH1 0x0 DUP4 ADD MSTORE PUSH2 0x598 DUP2 PUSH2 0x4FA JUMP JUMPDEST SWAP1 POP SWAP2 SWAP1 POP JUMP JUMPDEST PUSH1 0x0 PUSH1 0x20 DUP3 ADD SWAP1 POP DUP2 DUP2 SUB PUSH1 0x0 DUP4 ADD MSTORE PUSH2 0x5B8 DUP2 PUSH2 0x51D JUMP JUMPDEST SWAP1 POP SWAP2 SWAP1 POP JUMP JUMPDEST PUSH1 0x0 PUSH1 0x20 DUP3 ADD SWAP1 POP PUSH2 0x5D4 PUSH1 0x0 DUP4 ADD DUP5 PUSH2 0x540 JUMP JUMPDEST SWAP3 SWAP2 POP POP JUMP JUMPDEST PUSH1 0x0 PUSH2 0x5E4 PUSH2 0x5F5 JUMP JUMPDEST SWAP1 POP PUSH2 0x5F0 DUP3 DUP3 PUSH2 0x6CA JUMP JUMPDEST SWAP2 SWAP1 POP JUMP JUMPDEST PUSH1 0x0 PUSH1 0x40 MLOAD SWAP1 POP SWAP1 JUMP JUMPDEST PUSH1 0x0 PUSH8 0xFFFFFFFFFFFFFFFF DUP3 GT ISZERO PUSH2 0x61A JUMPI PUSH2 0x619 PUSH2 0x7A2 JUMP JUMPDEST JUMPDEST PUSH2 0x623 DUP3 PUSH2 0x7E5 JUMP JUMPDEST SWAP1 POP PUSH1 0x20 DUP2 ADD SWAP1 POP SWAP2 SWAP1 POP JUMP JUMPDEST PUSH1 0x0 DUP2 MLOAD SWAP1 POP SWAP2 SWAP1 POP JUMP JUMPDEST PUSH1 0x0 DUP3 DUP3 MSTORE PUSH1 0x20 DUP3 ADD SWAP1 POP SWAP3 SWAP2 POP POP JUMP JUMPDEST PUSH1 0x0 DUP2 SWAP1 POP SWAP2 SWAP1 POP JUMP JUMPDEST DUP3 DUP2 DUP4 CALLDATACOPY PUSH1 0x0 DUP4 DUP4 ADD MSTORE POP POP POP JUMP JUMPDEST PUSH1 0x0 JUMPDEST DUP4 DUP2 LT ISZERO PUSH2 0x683 JUMPI DUP1 DUP3 ADD MLOAD DUP2 DUP5 ADD MSTORE PUSH1 0x20 DUP2 ADD SWAP1 POP PUSH2 0x668 JUMP JUMPDEST DUP4 DUP2 GT ISZERO PUSH2 0x692 JUMPI PUSH1 0x0 DUP5 DUP5 ADD MSTORE JUMPDEST POP POP POP POP JUMP JUMPDEST PUSH1 0x0 PUSH1 0x2 DUP3 DIV SWAP1 POP PUSH1 0x1 DUP3 AND DUP1 PUSH2 0x6B0 JUMPI PUSH1 0x7F DUP3 AND SWAP2 POP JUMPDEST PUSH1 0x20 DUP3 LT DUP2 EQ ISZERO PUSH2 0x6C4 JUMPI PUSH2 0x6C3 PUSH2 0x773 JUMP JUMPDEST JUMPDEST POP SWAP2 SWAP1 POP JUMP JUMPDEST PUSH2 0x6D3 DUP3 PUSH2 0x7E5 JUMP JUMPDEST DUP2 ADD DUP2 DUP2 LT PUSH8 0xFFFFFFFFFFFFFFFF DUP3 GT OR ISZERO PUSH2 0x6F2 JUMPI PUSH2 0x6F1 PUSH2 0x7A2 JUMP JUMPDEST JUMPDEST DUP1 PUSH1 0x40 MSTORE POP POP POP JUMP JUMPDEST PUSH1 0x0 PUSH2 0x706 DUP3 PUSH2 0x64C JUMP JUMPDEST SWAP2 POP PUSH32 0xFFFFFFFFFFFFFFFFFFFFFFFFFFFFFFFFFFFFFFFFFFFFFFFFFFFFFFFFFFFFFFFF DUP3 EQ ISZERO PUSH2 0x739 JUMPI PUSH2 0x738 PUSH2 0x744 JUMP JUMPDEST JUMPDEST PUSH1 0x1 DUP3 ADD SWAP1 POP SWAP2 SWAP1 POP JUMP JUMPDEST PUSH32 0x4E487B7100000000000000000000000000000000000000000000000000000000 PUSH1 0x0 MSTORE PUSH1 0x11 PUSH1 0x4 MSTORE PUSH1 0x24 PUSH1 0x0 REVERT JUMPDEST PUSH32 0x4E487B7100000000000000000000000000000000000000000000000000000000 PUSH1 0x0 MSTORE PUSH1 0x22 PUSH1 0x4 MSTORE PUSH1 0x24 PUSH1 0x0 REVERT JUMPDEST PUSH32 0x4E487B7100000000000000000000000000000000000000000000000000000000 PUSH1 0x0 MSTORE PUSH1 0x41 PUSH1 0x4 MSTORE PUSH1 0x24 PUSH1 0x0 REVERT JUMPDEST PUSH1 0x0 DUP1 REVERT JUMPDEST PUSH1 0x0 DUP1 REVERT JUMPDEST PUSH1 0x0 DUP1 REVERT JUMPDEST PUSH1 0x0 DUP1 REVERT JUMPDEST PUSH1 0x0 PUSH1 0x1F NOT PUSH1 0x1F DUP4 ADD AND SWAP1 POP SWAP2 SWAP1 POP JUMP JUMPDEST PUSH32 0x43616E64696461746F20696E76616C69646F2E00000000000000000000000000 PUSH1 0x0 DUP3 ADD MSTORE POP JUMP JUMPDEST PUSH32 0x63616E64696461746F20696E76616C69646F2E00000000000000000000000000 PUSH1 0x0 DUP3 ADD MSTORE POP JUMP JUMPDEST PUSH2 0x851 DUP2 PUSH2 0x64C JUMP JUMPDEST DUP2 EQ PUSH2 0x85C JUMPI PUSH1 0x0 DUP1 REVERT JUMPDEST POP JUMP INVALID LOG2 PUSH5 0x6970667358 0x22 SLT KECCAK256 PUSH4 0x9C90673 0xC0 PUSH31 0xA5D9E9CA679138AF0DE55F1A117D1623EF26862AB1E5B65E6A64736F6C6343 STOP ADDMOD MOD STOP CALLER "
		},
		"gasEstimates": {
			"creation": {
				"codeDepositCost": "439400",
				"executionCost": "infinite",
				"totalCost": "infinite"
			},
			"external": {
				"adicionarCandidato(string)": "infinite",
				"candidatos(uint256)": "infinite",
				"contagemVotos(uint256)": "infinite",
				"totalCandidatos()": "2473",
				"votar(uint256)": "infinite"
			}
		},
		"methodIdentifiers": {
			"adicionarCandidato(string)": "985c64d0",
			"candidatos(uint256)": "8f023f85",
			"contagemVotos(uint256)": "d086d11c",
			"totalCandidatos()": "bc83abde",
			"votar(uint256)": "21606831"
		}
	},
	"abi": [
		{
			"inputs": [
				{
					"internalType": "string[]",
					"name": "nomesCandidatos",
					"type": "string[]"
				}
			],
			"stateMutability": "nonpayable",
			"type": "constructor"
		},
		{
			"inputs": [
				{
					"internalType": "string",
					"name": "nome",
					"type": "string"
				}
			],
			"name": "adicionarCandidato",
			"outputs": [],
			"stateMutability": "nonpayable",
			"type": "function"
		},
		{
			"inputs": [
				{
					"internalType": "uint256",
					"name": "",
					"type": "uint256"
				}
			],
			"name": "candidatos",
			"outputs": [
				{
					"internalType": "string",
					"name": "nome",
					"type": "string"
				},
				{
					"internalType": "uint256",
					"name": "votos",
					"type": "uint256"
				}
			],
			"stateMutability": "view",
			"type": "function"
		},
		{
			"inputs": [
				{
					"internalType": "uint256",
					"name": "candidato",
					"type": "uint256"
				}
			],
			"name": "contagemVotos",
			"outputs": [
				{
					"internalType": "uint256",
					"name": "",
					"type": "uint256"
				}
			],
			"stateMutability": "view",
			"type": "function"
		},
		{
			"inputs": [],
			"name": "totalCandidatos",
			"outputs": [
				{
					"internalType": "uint256",
					"name": "",
					"type": "uint256"
				}
			],
			"stateMutability": "view",
			"type": "function"
		},
		{
			"inputs": [
				{
					"internalType": "uint256",
					"name": "candidato",
					"type": "uint256"
				}
			],
			"name": "votar",
			"outputs": [],
			"stateMutability": "nonpayable",
			"type": "function"
		}
	]
}